{
  "contractName": "TaskAccount",
  "abi": [
    {
      "constant": true,
      "inputs": [
        {
          "name": "",
          "type": "uint256"
        },
        {
          "name": "",
          "type": "uint256"
        }
      ],
      "name": "applicants",
      "outputs": [
        {
          "name": "taskId",
          "type": "uint256"
        },
        {
          "name": "applyTime",
          "type": "uint256"
        },
        {
          "name": "applicantAccount",
          "type": "address"
        },
        {
          "name": "content",
          "type": "string"
        }
      ],
      "payable": false,
      "stateMutability": "view",
      "type": "function"
    },
    {
      "inputs": [],
      "payable": false,
      "stateMutability": "nonpayable",
      "type": "constructor"
    },
    {
      "constant": false,
      "inputs": [
        {
          "name": "_content",
          "type": "string"
        },
        {
          "name": "_salary",
          "type": "uint256"
        },
        {
          "name": "_workdays",
          "type": "uint256"
        }
      ],
      "name": "sendTask",
      "outputs": [],
      "payable": false,
      "stateMutability": "nonpayable",
      "type": "function"
    },
    {
      "constant": false,
      "inputs": [
        {
          "name": "id",
          "type": "uint256"
        },
        {
          "name": "content",
          "type": "string"
        }
      ],
      "name": "applyTask",
      "outputs": [],
      "payable": false,
      "stateMutability": "nonpayable",
      "type": "function"
    },
    {
      "constant": true,
      "inputs": [
        {
          "name": "id",
          "type": "uint256"
        }
      ],
      "name": "getApplicantsLength",
      "outputs": [
        {
          "name": "",
          "type": "uint256"
        }
      ],
      "payable": false,
      "stateMutability": "view",
      "type": "function"
    },
    {
      "constant": true,
      "inputs": [],
      "name": "getNumberOfTasks",
      "outputs": [
        {
          "name": "",
          "type": "uint256"
        }
      ],
      "payable": false,
      "stateMutability": "view",
      "type": "function"
    },
    {
      "constant": true,
      "inputs": [
        {
          "name": "id",
          "type": "uint256"
        }
      ],
      "name": "getTask",
      "outputs": [
        {
          "name": "",
          "type": "uint256"
        },
        {
          "name": "",
          "type": "string"
        },
        {
          "name": "",
          "type": "uint256"
        },
        {
          "name": "",
          "type": "uint256"
        }
      ],
      "payable": false,
      "stateMutability": "view",
      "type": "function"
    },
    {
      "constant": true,
      "inputs": [],
      "name": "getAccountAddress",
      "outputs": [
        {
          "name": "",
          "type": "address"
        }
      ],
      "payable": false,
      "stateMutability": "view",
      "type": "function"
    }
  ],
  "bytecode": "0x608060405234801561001057600080fd5b50336000806101000a81548173ffffffffffffffffffffffffffffffffffffffff021916908373ffffffffffffffffffffffffffffffffffffffff1602179055506109a9806100606000396000f300608060405260043610610083576000357c0100000000000000000000000000000000000000000000000000000000900463ffffffff1680630e2562d9146100885780631d65e77e146100df5780635153d4e11461019a578063c2c9f9561461028b578063c3d01fb314610308578063cccd05be14610349578063f6397fd3146103bc575b600080fd5b34801561009457600080fd5b5061009d6103e7565b604051808273ffffffffffffffffffffffffffffffffffffffff1673ffffffffffffffffffffffffffffffffffffffff16815260200191505060405180910390f35b3480156100eb57600080fd5b5061010a60048036038101908080359060200190929190505050610410565b6040518085815260200180602001848152602001838152602001828103825285818151815260200191508051906020019080838360005b8381101561015c578082015181840152602081019050610141565b50505050905090810190601f1680156101895780820380516001836020036101000a031916815260200191505b509550505050505060405180910390f35b3480156101a657600080fd5b506101cf6004803603810190808035906020019092919080359060200190929190505050610545565b604051808581526020018481526020018373ffffffffffffffffffffffffffffffffffffffff1673ffffffffffffffffffffffffffffffffffffffff16815260200180602001828103825283818151815260200191508051906020019080838360005b8381101561024d578082015181840152602081019050610232565b50505050905090810190601f16801561027a5780820380516001836020036101000a031916815260200191505b509550505050505060405180910390f35b34801561029757600080fd5b50610306600480360381019080803590602001908201803590602001908080601f01602080910402602001604051908101604052809392919081815260200183838082843782019150505050505091929192908035906020019092919080359060200190929190505050610649565b005b34801561031457600080fd5b5061033360048036038101908080359060200190929190505050610742565b6040518082815260200191505060405180910390f35b34801561035557600080fd5b506103ba60048036038101908080359060200190929190803590602001908201803590602001908080601f0160208091040260200160405190810160405280939291908181526020018383808284378201915050505050509192919290505050610762565b005b3480156103c857600080fd5b506103d1610863565b6040518082815260200191505060405180910390f35b60008060009054906101000a900473ffffffffffffffffffffffffffffffffffffffff16905090565b6000606060008060018581548110151561042657fe5b90600052602060002090600402016000015460018681548110151561044757fe5b906000526020600020906004020160010160018781548110151561046757fe5b90600052602060002090600402016002015460018881548110151561048857fe5b906000526020600020906004020160030154828054600181600116156101000203166002900480601f01602080910402602001604051908101604052809291908181526020018280546001816001161561010002031660029004801561052f5780601f106105045761010080835404028352916020019161052f565b820191906000526020600020905b81548152906001019060200180831161051257829003601f168201915b5050505050925093509350935093509193509193565b60026020528160005260406000208181548110151561056057fe5b9060005260206000209060040201600091509150508060000154908060010154908060020160009054906101000a900473ffffffffffffffffffffffffffffffffffffffff1690806003018054600181600116156101000203166002900480601f01602080910402602001604051908101604052809291908181526020018280546001816001161561010002031660029004801561063f5780601f106106145761010080835404028352916020019161063f565b820191906000526020600020905b81548152906001019060200180831161062257829003601f168201915b5050505050905084565b610651610870565b6000809054906101000a900473ffffffffffffffffffffffffffffffffffffffff1673ffffffffffffffffffffffffffffffffffffffff163373ffffffffffffffffffffffffffffffffffffffff161415156106ac57600080fd5b60806040519081016040528042815260200185815260200184815260200183815250905060018190806001815401808255809150509060018203906000526020600020906004020160009091929091909150600082015181600001556020820151816001019080519060200190610724929190610899565b50604082015181600201556060820151816003015550505050505050565b600060026000838152602001908152602001600020805490509050919050565b61076a610919565b6080604051908101604052808481526020014281526020013373ffffffffffffffffffffffffffffffffffffffff168152602001838152509050600260008481526020019081526020016000208190806001815401808255809150509060018203906000526020600020906004020160009091929091909150600082015181600001556020820151816001015560408201518160020160006101000a81548173ffffffffffffffffffffffffffffffffffffffff021916908373ffffffffffffffffffffffffffffffffffffffff160217905550606082015181600301908051906020019061085a929190610899565b50505050505050565b6000600180549050905090565b608060405190810160405280600081526020016060815260200160008152602001600081525090565b828054600181600116156101000203166002900490600052602060002090601f016020900481019282601f106108da57805160ff1916838001178555610908565b82800160010185558215610908579182015b828111156109075782518255916020019190600101906108ec565b5b5090506109159190610958565b5090565b6080604051908101604052806000815260200160008152602001600073ffffffffffffffffffffffffffffffffffffffff168152602001606081525090565b61097a91905b8082111561097657600081600090555060010161095e565b5090565b905600a165627a7a72305820372b054a3b397f412c51eea15d24b061f3aff58091d4d215216113d0c3f2ba2c0029",
  "source": "pragma solidity ^0.4.18;\n\ncontract TaskAccount {\n\n    struct Applicant{\n        uint taskId;//任务id\n        uint applyTime;\n        address applicantAccount;\n        string content;\n    }\n//任务需求结构\n    struct Task {\n        uint time;\n        string content;\n        uint salary;//薪水\n        uint workdays;//工作时长\n    }\n\n    address _accountAddress;\n    Task[] _tasks;\n    //id任务下的所有申请者\n    mapping(uint => Applicant[]) public applicants;\n    //address public contractAddress;\n\n    constructor() public {\n        _accountAddress = msg.sender;\n        //contractAddress = this;\n    }\n\n    modifier onlyAdmin {\n        require(msg.sender == _accountAddress);\n        _;\n    }\n\n    function sendTask(string memory _content, uint  _salary, uint  _workdays) public onlyAdmin {\n        Task memory task = Task(now, _content , _salary, _workdays);\n        _tasks.push(task);\n    }\n\n    function applyTask(uint id, string memory content) public {\n        Applicant memory applicant = Applicant(id, now, msg.sender, content);\n        applicants[id].push(applicant);\n    }\n\n    function getApplicantsLength(uint id) public view returns (uint) {\n        return applicants[id].length;\n    }\n\n    function getNumberOfTasks() public view returns (uint) {\n        return _tasks.length;\n    }\n\n    function getTask(uint id) public view returns (uint, string memory, uint, uint ) {\n        return (_tasks[id].time, _tasks[id].content, _tasks[id].salary, _tasks[id].workdays);\n    }\n\n    function getAccountAddress() public view returns (address) {\n        return _accountAddress;\n    }\n}\n",
  "sourcePath": "/home/jinjin/Dappprojects/AgricultureSS3.0/contracts/TaskAccount.sol",
  "compiler": {
    "name": "solc",
    "version": "0.4.25+commit.59dbf8f1.Emscripten.clang"
  },
  "schemaVersion": "2.0.2",
  "updatedAt": "2019-03-29T13:00:32.836Z"
}